:100000000C9435000C945D000C945D000C945D0024
:100010000C945D000C945D000C945D000C945D00EC
:100020000C945D000C945D000C945D000C945D00DC
:100030000C945D000C945D000C945D000C945D00CC
:100040000C9479010C945D000C94E9010C94C301AB
:100050000C945D000C945D000C945D000C945D00AC
:100060000C945D000C945D00AE0211241FBECFEF16
:10007000D8E0DEBFCDBF11E0A0E0B1E0E6ECF5E0F6
:1000800002C005900D92AA34B107D9F721E0AAE485
:10009000B1E001C01D92A03FB207E1F710E0C5E357
:1000A000D0E004C02197FE010E94DB02C433D107D7
:1000B000C9F70E941B020C94E1020C940000AF925D
:1000C000BF92CF92DF92EF92FF920F931F93CF9345
:1000D000DF936C017B018B01040F151FEB015E01A7
:1000E000AE18BF08C017D10759F06991D601ED913C
:1000F000FC910190F081E02DC6010995892B79F7DB
:10010000C501DF91CF911F910F91FF90EF90DF908C
:10011000CF90BF90AF900895FC01538D448D252F53
:1001200030E0842F90E0821B930B541710F0CF9691
:10013000089501970895FC01918D828D981761F0C3
:10014000A28DAE0FBF2FB11D5D968C91928D9F5FDA
:100150009F73928F90E008958FEF9FEF0895FC01B9
:10016000918D828D981731F0828DE80FF11D858D6C
:1001700090E008958FEF9FEF0895FC01918D228DFF
:10018000892F90E0805C9F4F821B91098F73992784
:10019000089583E591E00E94BD0021E0892B09F4D8
:1001A00020E0822F089580E090E0892B29F00E94C2
:1001B000C90081110C9400000895FC01A48DA80FC2
:1001C000B92FB11DA35ABF4F2C91848D90E0019699
:1001D0008F739927848FA689B7892C93A089B189B9
:1001E0008C91837080648C93938D848D981306C05A
:1001F0000288F389E02D80818F7D80830895EF92BE
:10020000FF920F931F93CF93DF93EC0181E0888FD0
:100210009B8D8C8D98131AC0E889F989808185FFA0
:1002200015C09FB7F894EE89FF896083E889F98942
:1002300080818370806480839FBF81E090E0DF9144
:10024000CF911F910F91FF90EF900895F62E0B8D97
:1002500010E00F5F1F4F0F731127E02E8C8D8E1152
:100260000CC00FB607FCFACFE889F989808185FFB9
:10027000F5CFCE010E94DD00F1CFEB8DEC0FFD2F0D
:10028000F11DE35AFF4FF0829FB7F8940B8FEA8974
:10029000FB8980818062CFCFCF93DF93EC01888D83
:1002A0008823B9F0AA89BB89E889F9898C9185FDF1
:1002B00003C0808186FD0DC00FB607FCF7CF8C917F
:1002C00085FFF2CF808185FFEDCFCE010E94DD005A
:1002D000E9CFDF91CF910895FC0101900020E9F76B
:1002E0003197AF01481B590BBC0183E591E00C9499
:1002F0005F001F920F920FB60F9211242F933F931E
:100300008F939F93AF93BF9380914F019091500132
:10031000A0915101B091520130914E0123E0230F81
:100320002D3758F50196A11DB11D20934E018093E4
:100330004F0190935001A0935101B09352018091CD
:100340004A0190914B01A0914C01B0914D01019651
:10035000A11DB11D80934A0190934B01A0934C01C4
:10036000B0934D01BF91AF919F918F913F912F918C
:100370000F900FBE0F901F90189526E8230F02963E
:10038000A11DB11DD2CF1F920F920FB60F92112453
:100390002F933F934F935F936F937F938F939F938D
:1003A000AF93BF93EF93FF9383E591E00E94DD004D
:1003B000FF91EF91BF91AF919F918F917F916F913D
:1003C0005F914F913F912F910F900FBE0F901F9013
:1003D00018951F920F920FB60F9211242F938F939F
:1003E0009F93EF93FF93E0916301F091640180810B
:1003F000E0916901F0916A0182FD1BC090818091BA
:100400006C018F5F8F7320916D01821741F0E09135
:100410006C01F0E0ED5AFE4F958F80936C01FF91D7
:10042000EF919F918F912F910F900FBE0F901F9082
:1004300018958081F4CF789484B5826084BD84B5AA
:10044000816084BD85B5826085BD85B5816085BDCF
:1004500080916E00816080936E0010928100809187
:10046000810082608093810080918100816080930F
:100470008100809180008160809380008091B10034
:1004800084608093B1008091B00081608093B0005F
:1004900080917A00846080937A0080917A008260F3
:1004A00080937A0080917A00816080937A008091B5
:1004B0007A00806880937A001092C100E091630115
:1004C000F091640182E08083E0915F01F09160012E
:1004D0001082E0916101F09162018FEC80831092B3
:1004E0006B01E0916701F091680186E08083E09103
:1004F0006501F0916601808180618083E0916501F2
:10050000F0916601808188608083E0916501F091BF
:100510006601808180688083E0916501F0916601C9
:1005200080818F7D808382E191E00E946C018EE169
:1005300091E00E946C01C0E0D0E081E291E00E9475
:100540006C018EE191E00E946C012097B1F30E9452
:10055000C900882391F30E940000EFCFE3E5F1E0AA
:100560001382128288EE93E0A0E0B0E0848395834A
:10057000A683B78384E091E09183808385EC90E04B
:100580009587848784EC90E09787868780EC90E05D
:10059000918B808B81EC90E0938B828B82EC90E04E
:1005A000958B848B86EC90E0978B868B118E128EC8
:1005B000138E148E0895EE0FFF1F0590F491E02D19
:0605C0000994F894FFCF3E
:1005C60000000000FF005F008C004C01BD009B0096
:1005D600AF0048656C6C6F20576F726C64000D0A33
:1005E60000686F6920696B2062656E206461616EC8
:1005F60020656E2064697420737461617420696E6D
:0A060600206465206C6F6F702E00F9
:00000001FF
